:100000000C9472000C9493000C9493000C94930045
:100010000C9493000C9485020C9460020C94930051
:100020000C9493000C9493000C9493000C94930004
:100030000C9493000C9493000C9493000C949300F4
:100040000C9493000C9493000C9493000C949300E4
:100050000C9493000C9493000C9493000C949300D4
:100060000C9493000C941F040C9493000C94930034
:100070000C9493000C9493000C9493000C949300B4
:100080000C9493000C9493000C9493000C949300A4
:100090000C9493000C9493000C9493000C94930094
:1000A0000C9493000C9493000C9493000C94930084
:1000B0000C9493000C9493000C9493000C94930074
:1000C0000C9493000C9493000C9493000C94930064
:1000D0000C9493000C9493000C9493000C94930054
:1000E0000C94930011241FBECFEFD1E2DEBFCDBF31
:1000F00000E00CBF13E0A0E0B2E0E0EDF3E200E0CE
:100100000BBF02C007900D92A036B107D9F713E0DC
:10011000A0E6B3E001C01D92AA38B107E1F70E9442
:10012000E90A0C94E6110C94000086E69EE0FC01BE
:100130003197F1F74098419840E348B9429A20E05E
:1001400038E4F9013197F1F74298FC013197F1F762
:100150004098419848B9429AF9013197F1F742988D
:10016000FC013197F1F74098419848B9429AF9015A
:100170003197F1F742980197F1F74098419880E262
:1001800088B9429AC9010197F1F74298089598B148
:100190009F7098B928B1982F907F922B98B940986A
:1001A0004198429A20E038E4F9013197F1F74298FA
:1001B00098B19F7098B998B18295807F982B98B923
:1001C00040984198429AC9010197F1F742980895E1
:1001D0000E94950086E69EE00197F1F788E20E9472
:1001E000C70081E00E94C70086E00E94C7008EE041
:1001F0000E94C70080E80E94C700089598B19F70D0
:1002000098B928B1982F907F922B98B9409A41982D
:10021000429A20E038E4F9013197F1F7429898B119
:100220009F7098B998B18295807F982B98B9409A21
:100230004198429AC9010197F1F74298089580E8E0
:100240000E94C7000895CF93DF93EC0103C00E9482
:10025000FE00219688818823D1F7DF91CF91089500
:10026000823069F0833018F48130A9F405C08330FE
:1002700049F0843081F40BC0862F815805C0862F49
:10028000815402C0862F8D560E94C7000895862F84
:100290008D520E94C70008950F931F93CF93DF9351
:1002A0008A01E901882311F0662319F40E941F01D5
:1002B00002C00E943001C530D10571F4C80160E16F
:1002C00077E20E949B11CB01C09690937D038093AF
:1002D0007C030E94FE0005C0C430D10511F080E00F
:1002E00016C0C80168EE73E00E949B11CB016093B9
:1002F0007E0390937F036AE070E00E949B11C0969A
:1003000090938903809388030E94FE0081E0C330AC
:10031000D10521F0813011F080E016C0C80164E6FB
:1003200070E00E949B11CB0160937E0390937F034A
:100330006AE070E00E949B11C096909385038093C1
:1003400084030E94FE0081E0C230D10521F081309B
:1003500011F080E016C0C8016AE070E00E949B11B5
:10036000CB0160937E0390937F036AE070E00E946C
:100370009B11C09690938203809381030E94FE009C
:1003800081E0C130D10511F0813061F4C8016AE02B
:1003900070E00E949B11C096909387038093860320
:1003A0000E94FE0026971CF085E40E94FE00DF916B
:1003B000CF911F910F9108950F931F9381E061E0FA
:1003C0000E94300100E012E0C8010E94230182E097
:1003D00061E00E943001C8010E9423011F910F912A
:1003E00008953B9A0895439A08954398089587B1D4
:1003F000876F87B988B1807888B90895269A2E9A30
:100400000895E1E8F0E010828CEF8093850081E0B0
:100410008093840093E0909389008FEF809388000D
:1004200090938B0080938A0090938D0080938C0032
:1004300090938700809386008BEA809380001092CF
:1004400082008CE08083089510BA11BA10920701DF
:10045000109208010895EAE7F0E0108210927B0004
:1004600010927C0080E880BF86E88083089581B187
:100470008F6081B982B1807F82B9EAE0F1E080814A
:1004800088618083EBE0F1E080818861808308955A
:100490006C98749A08956D98759A0895F894EAE6A0
:1004A000F0E0808182608083EC9A78940895F894DB
:1004B000EAE6F0E0808188608083ED9A7894089580
:1004C0001F920F920FB60F9211248F939F93AF93A9
:1004D000BF938091640390916503A0916603B091EE
:1004E00067030196A11DB11D80936403909365037A
:1004F000A0936603B0936703BF91AF919F918F91D3
:100500000F900FBE0F901F9018951F920F920FB66D
:100510000F9211248F939F93AF93BF9380916003A9
:1005200090916103A0916203B09163030196A11DB4
:10053000B11D8093600390936103A0936203B09315
:100540006303BF91AF919F918F910F900FBE0F905A
:100550001F90189592B1907F8F70892B82B9089562
:10056000E1E2F1E010829FEF9093250181E080931A
:100570002401109229019093280110922B0190934D
:100580002A0110922D0190932C0189EA8093200179
:100590008BE080830895EAE7F0E0108210927B0000
:1005A00080E280937C0080E880BF86E880830895A5
:1005B00010928B0090E0A0E0B0E0BC01CD010E9461
:1005C000210F2BE734E14EEE5FE30E94F10D20E0B6
:1005D00030E04CE052E40E94C40D0E941B0C60937A
:1005E0008A00089583E080938B008FEF80938A00C8
:1005F0000895982F883018F088E080937B009770DA
:10060000906290937C0080917A00806480937A005D
:1006100080917A0084FFFCCF8091790090917A00DC
:10062000906190937A0010927B000895842F0E942D
:10063000F9028093800308958093280160932A0132
:10064000089582B1807F866082B9089582B1807FEB
:10065000896082B9089582B1807F856082B90895EA
:1006600082B1807F8A6082B9089582B1807F846080
:1006700082B9089582B1807F826082B9089582B183
:10068000807F816082B9089582B1807F886082B95D
:10069000089582B1807F82B90895EF92FF920F93FF
:1006A0001F93A0E0B0E0BC01CD010E94210F28E41F
:1006B00031EE42E850E40E94F10D0E941B0C7B01D8
:1006C00000E010E01092640310926503109266033C
:1006D00010926703109260031092610310926203FC
:1006E000109263038091640390916503A091660367
:1006F000B0916703209160033091610340916203E0
:10070000509163038E159F05A007B10728F42E159D
:100710003F054007510730F382B1807F82B91F91B6
:100720000F91FF90EF900895A0E0B0E0BC01CD01E3
:100730000E94210F25EE30ED4AEA50E40E94F10DAF
:100740000E941B0C9B01AC01109264031092650384
:100750001092660310926703809164039091650381
:10076000A0916603B0916703281739074A075B0712
:1007700098F782B1807F82B9089528EC20932801F0
:1007800020932A0122B1207F266022B90E9494037F
:10079000089522B1207F296022B90E949403089510
:1007A00028EC2093280120932A0122B1207F256084
:1007B00022B90E944D03089528EC2093280120932C
:1007C0002A0122B1207F2A6022B90E944D03089598
:1007D00022B1207F246022B9880F991F0E944D0307
:1007E000089522B1207F226022B9880F991F0E94AC
:1007F0004D03089522B1207F216022B9880F991FEF
:100800000E944D03089522B1207F286022B9880FED
:10081000991F0E944D0308950E944C010895E1EC38
:10082000F0E010821092C00086E08093C2008FE555
:100830008093C4001092C50088E9808308951F92B8
:100840000F920FB60F9211248F939F9381E090E047
:1008500090936B0380936A038091C6008093830317
:100860009F918F910F900FBE0F901F9018958093BE
:10087000C6000895F894E1ECF0E010821092C000F8
:1008800086E08093C2008FE58093C4001092C5007B
:1008900088E980837894089580916A0390916B032E
:1008A000892BD1F310926B0310926A03809183031A
:1008B000089520E030E0883210F021E030E0C901F6
:1008C000089582E00E94F90280936E0380916E0386
:1008D0008832B8F382B1807F82B9089588EC809322
:1008E000280180932A0182B1807F8A6082B90E94A8
:1008F0006104089588EC8093280180932A0182B1D5
:10090000807F856082B90E9461040895EF92FF9212
:100910000F931F93A0E0B0E0BC01CD010E94210F16
:1009200025EE30ED4AEA50E40E94F10D0E941B0CC6
:100930007B018C0110926403109265031092660390
:100940001092670383E00E94F90280936D0382E0B6
:100950000E94F90280936E0381E00E94F902809365
:100960006F0380916D03883220F480916F03883289
:1009700068F580916D03883250F035C082B1807F78
:10098000866082B9809153029091510227C082B152
:10099000807F866082B98091510280932801809384
:1009A0002A018091640390916503A0916603B09140
:1009B0006703E816F9060A071B0720F682B1807F55
:1009C00082B91F910F91FF90EF90089582B1807FBF
:1009D000866082B9809151029091530280932801E0
:1009E00090932A01DECF80916F03883238F2CFCF07
:1009F00022B1207F22B922B1207F266022B9209126
:100A000051022093280120932A010E948604089510
:100A100082B1807F82B983E00E94F90280936D03E6
:100A200082E00E94F90280936E0381E00E94F90245
:100A300080936F0380916F038832E8F480916D0397
:100A4000883210F580916E03883280F02AC0809140
:100A50006F03883258F482B1807F896082B98091B7
:100A600051028093280180932A01D5CF80916E0393
:100A7000883288F21BC082B1807F896082B9809100
:100A800053029091510208C082B1807F896082B97F
:100A900080915102909153028093280190932A01F2
:100AA000BACF80916D03883290F2E0CF80916D03D0
:100AB000883208F4B0CF80916F03883208F4ABCF4E
:100AC00082B1807F82B9089582B1807F82B982B17C
:100AD000807F866082B983E00E94F90280936D0373
:100AE00082E00E94F90280936E0381E00E94F90285
:100AF00080936F0383E00E94F9028093800382E079
:100B00000E94F9028093800381E00E94F9028093A1
:100B1000800380916E038832F0F480916D038832F7
:100B200020F480916F03883210F580916D03883234
:100B300068F02AC081E080936C0382B1807F866078
:100B400082B9809153029091510219C080916E0335
:100B5000883208F21EC080916D038832F0F28091D5
:100B60006F038832D0F282B1807F82B9089582B15A
:100B7000807F866082B98091510290915302809368
:100B8000280190932A01A7CF80916F03883290F2B9
:100B9000DDCF82B1807F866082B9809151028093DF
:100BA000280180932A0197CFEF92FF921F93CF9352
:100BB000DF93182F80915502909156020E94BD0339
:100BC00087E890E00E94DC030E946E0482B1807F7F
:100BD00082B9C0E0D0E060E7E62E61E0F62E02C008
:100BE000C0E0D0E083E00E94F90280936D0382E0D0
:100BF0000E94F90280936E0381E00E94F9028093C3
:100C00006F0310926C0383E00E94F90280938003CB
:100C100082E00E94F9028093800381E00E94F90241
:100C20008093800380916E03883208F455C077C0AA
:100C300080916F03883208F44FC0209709F041C0BB
:100C40001150812F63E00E948F11992301F182B12D
:100C5000807F82B980915502909156020E94BD0317
:100C600082B1807F82B980E197E2F7013197F1F795
:100C70000197D9F78DE290E00E94D0030E947A0498
:100C800080E197E2F7013197F1F70197D9F7112346
:100C900019F0C1E0D0E03DC082B1807F82B980917F
:100CA0005502909156020E94BD0387E890E00E9491
:100CB000DC030E946E04DF91CF911F91FF90EF90B3
:100CC000089582B1807F866082B9809151028093BD
:100CD000280180932A011DC080916D03883220F481
:100CE00080916F03883208F580916D03883268F037
:100CF00029C081E080936C0382B1807F866082B9D5
:100D0000809153029091510218C080916E038832F5
:100D1000F0F480916D03883208F462CF25C0809191
:100D20006D03883208F484CF88CF82B1807F8660DB
:100D300082B980915102909153028093280190933F
:100D40002A01E7CF80916F03883298F2DECF82B11B
:100D5000807F866082B980915102809328018093C0
:100D60002A01C0E0D0E0D5CF80916F03883208F42B
:100D700037CF38CFEF92FF920F931F93CF93DF932C
:100D8000182F062F662319F40E94D40596C082B14D
:100D9000807F82B9C0E0D0E070E7E72E71E0F72EE7
:100DA00083E00E94F90280936D0382E00E94F902C1
:100DB00080936E0381E00E94F90280936F0310928A
:100DC0006C0383E00E94F9028093800382E00E941A
:100DD000F9028093800381E00E94F90280938003EE
:100DE00080916E03883208F150C080916F03883281
:100DF000E0F0209799F51F5F82B1807F82B9439A16
:100E000088E893E1F7013197F1F70197D9F7439813
:100E100082B1807F866082B9011719F0C1E0D0E00D
:100E200027C082B1807F82B948C080916D0388322B
:100E300020F480916F03883270F580916D038832C1
:100E400068F036C081E080936C0382B1807F866059
:100E500082B9809153029091510225C082B1807F66
:100E6000866082B9809151028093280180932A0183
:100E700080916D03883208F093CF80916F038832A0
:100E800008F08ECFC0E0D0E08BCF80916D03883228
:100E900008F4ABCFAECF82B1807F866082B98091FB
:100EA0005102909153028093280190932A01E0CF40
:100EB00080916F03883230F2D1CFDF91CF911F91B3
:100EC0000F91FF90EF900895EF92FF920F931F9371
:100ED000CF93DF93062F182F1F5F809151028093CD
:100EE000280180932A0180915502909156020E9418
:100EF000BD0387E890E00E94DC030E946E0482B18B
:100F0000807F82B9C0E0D0E0E0E7EE2EE1E0FE2E87
:100F100083E00E94F90280936D0382E00E94F9024F
:100F200080936E0381E00E94F90280936F03109218
:100F30006C0383E00E94F9028093800382E00E94A8
:100F4000F9028093800381E00E94F902809380037C
:100F500080916E03883208F440C06CC080916F03AA
:100F60008832D8F1209709F04EC0115082B1807FAD
:100F700082B9439A88E893E1F7013197F1F7019735
:100F8000D9F7439882B1807F866082B9112319F026
:100F9000C1E0D0E042C082B1807F82B98091550229
:100FA000909156020E94BD03002339F48DE290E037
:100FB0000E94D0030E947A0406C08DE290E00E9455
:100FC000DC030E946E0482B1807F82B9DF91CF91F1
:100FD0001F910F91FF90EF90089580916D038832DB
:100FE00020F480916F03883258F580916D03883228
:100FF00050F033C082B1807F866082B98091530205
:101000009091510225C082B1807F866082B9809123
:1010100051028093280180932A0180916D038832C8
:1010200008F076CF80916F03883208F071CFC0E06E
:10103000D0E06ECF80916D03883208F48FCF92CFCD
:1010400082B1807F866082B9809151029091530273
:101050008093280190932A01E0CF80916F0388321A
:1010600048F2D1CFCF92DF92FF920F931F93CF938D
:10107000DF93182FF62E882319F0842F0E9464071F
:10108000C12FD0E0FF20C9F42197B9F48091550217
:1010900090915602880F991F880F991F0E94BD03D7
:1010A00082B1807F82B980E197E220E731E0F901E7
:1010B0003197F1F70197D9F751C082B1807F82B99A
:1010C00000E010E0CF2CDD2483E00E94F902809341
:1010D0006D0382E00E94F90280936E0381E00E941A
:1010E000F90280936F0310926C0383E00E94F9026F
:1010F0008093800382E00E94F9028093800381E064
:101100000E94F9028093800380916E03883208F474
:101110005CC08BC080916F03883208F456C0011503
:10112000110509F068C0FF2019F5219709F06EC07C
:101130008091550290915602880F991F880F991F30
:101140000E94BD0382B1807F82B980E197E220E7EF
:1011500031E0F9013197F1F70197D9F787E890E08D
:101160000E94DC030E946E0482B1807F82B975C048
:101170002196CC16DD0609F049C082B1807F82B984
:1011800082B1807F82B980915502909156020E946F
:10119000BD0382B1807F82B980E197E220E731E030
:1011A000F9013197F1F70197D9F78DE290E00E94AC
:1011B000DC030E946E0480E197E220E731E0F90150
:1011C0003197F1F70197D9F748C080916D038832C4
:1011D00020F480916F03883270F580916D0388321E
:1011E00050F036C082B1807F866082B98091530210
:1011F0009091510228C082B1807F866082B980912F
:1012000051028093280180932A0102C001E010E07E
:1012100080916D03883208F057CF80916F03883238
:1012200008F052CF00E010E04FCF80916D0388327C
:1012300008F470CF74CF82B1807F866082B98091CC
:101240005102909153028093280190932A01E0CF9C
:1012500080916F03883230F2CECFDF91CF911F9112
:101260000F91FF90DF90CF9008951F938EE00E9422
:10127000F902182F82E061E0412F50E023E030E0D6
:101280000E944C01812F1F91089589E60E94D80287
:1012900008958AEA0E94D80208950F931F93DF935E
:1012A000CF9300D000D0CDB7DEB70E94450988E9C2
:1012B0009AE320E731E0F9013197F1F70197D9F787
:1012C0000E943509182F88E99AE320E731E0F901F7
:1012D0003197F1F70197D9F70E94350928E93AE3E8
:1012E00040E751E0FA013197F1F721503040D1F752
:1012F00019831A828B831C820E9435098D831E827A
:101300000E944909DE01119680E090E08D01BC0148
:101310006F5F7F4FFB01EE0FFF1FE00FF11F9B017F
:1013200010C04D915C911197808191818417950730
:1013300028F411969C938E93518340832F5F3F4FE7
:101340003296233031056CF31296CB016330710570
:10135000F1F68B819C8126960FB6F894DEBF0FBE06
:10136000CDBFCF91DF911F910F9108950F931F93E0
:10137000CF93DF93823709F052C085E590E00E9459
:10138000DC0380E197E220E731E0F9013197F1F7E2
:101390000197D9F70E944D098C0180E197E220E77F
:1013A00031E0F9013197F1F70197D9F785E090E045
:1013B0000E94DC0380E197E220E731E0F9013197F8
:1013C000F1F70197D9F70E944D09EC0180E197E20E
:1013D00020E731E0F9013197F1F70197D9F785E07E
:1013E00090E00E94DC0380E197E220E731E0F90120
:1013F0003197F1F70197D9F70E944D0920E137E2C3
:1014000040E751E0FA013197F1F721503040D1F730
:10141000C00FD11FC80FD91F0E947A0451C085E5A3
:1014200090E00E94D00380E197E220E731E0F901EB
:101430003197F1F70197D9F70E944D098C0180E1AE
:1014400097E220E731E0F9013197F1F70197D9F7F9
:1014500085E090E00E94D00380E197E220E731E050
:10146000F9013197F1F70197D9F70E944D09EC0185
:1014700080E197E220E731E0F9013197F1F7019738
:10148000D9F785E090E00E94D00380E197E220E761
:1014900031E0F9013197F1F70197D9F70E944D0931
:1014A00020E137E240E751E0FA013197F1F72150AE
:1014B0003040D1F7C00FD11FC80FD91F0E946E0452
:1014C000CE0163E070E00E949B11862FDF91CF91E7
:1014D0001F910F910895CF93DF93F89487B1876F91
:1014E00087B988B1807888B90E94E8003B9A10BA21
:1014F00011BA109207011092080181B18F6081B971
:1015000082B1807F82B9EAE0F1E0808188618083E6
:10151000EBE0F1E08081886180836C98749AF894A4
:10152000EAE6F0E0808182608083EC9A78946D989E
:10153000759AF894EAE6F0E0808188608083ED9AFD
:101540007894EAE7F0E010822BE730E0D9011C92B2
:10155000ACE7B0E080E28C9390E890BF86E88083AF
:101560001082E90118821C9290BF8083269A2E9ADD
:10157000E1E2F1E010829FEF9093250181E08093FA
:101580002401109229019093280110922B0190932D
:101590002A0110922D0190932C0189EA8093200159
:1015A0008BE080830E940102F894E1ECF0E010826D
:1015B0001092C00086E08093C2008FE58093C40043
:1015C0001092C50088E9808378947894DF91CF9158
:1015D0000895DF92EF92FF920F931F93CF93DF93C3
:1015E0000E946B0A0E944909439A88E893E120E728
:1015F00031E0F9013197F1F70197D9F7439800E706
:1016000011E021E0E22EF12C9AE0D92E80917303B3
:101610008093710380916A0390916B03892BD1F3BE
:1016200010926B0310926A0380918303809373037B
:101630000E94DC0181E061E00E94300181E192E0E2
:101640000E94230182E061E00E94300180917303D7
:10165000805D0E94FE0080E197E2F8013197F1F78A
:101660000197D9F76091730380917103681751F066
:10167000409172030E9432081092720380917303AA
:10168000882341F090917303992339F48091710379
:10169000882319F41092C600B9CF9093C6008091A8
:1016A00072038093700380916A0390916B03892B7E
:1016B000D1F310926B0310926A038091830380939D
:1016C00072030E94DC0181E061E00E9430018CE144
:1016D00092E00E94230182E061E00E94300180914B
:1016E0007203805D0E94FE0080E197E2F80131976D
:1016F000F1F70197D9F78091700360917203861713
:1017000019F4C1E0D0E006C00E94BA061092750339
:10171000C0E0D0E0809172038093C60020917403F2
:1017200080917503280F2093750380916A0390912F
:101730006B03892BD1F310926B0310926A03809193
:10174000830380937403209719F0821B80937403A2
:101750000E94DC0181E061E00E94300188E292E0B9
:101760000E9423014091740382E061E050E023E095
:1017700030E00E944C0197012C1B3D0B80915502DB
:1017800090915602AC01249FC001259F900D349F7B
:10179000900D1124209174032D9D90011124820F2E
:1017A000931F0E94F804809174038093C600809177
:1017B0006A0390916B03892BD1F310926B03109203
:1017C0006A0380918303809376038093C6000E940E
:1017D000DC0181E061E00E94300186E392E00E943A
:1017E000230182E061E00E943001809176030E9433
:1017F000FE00809176030E94B609809377030E94D1
:10180000DC0181E061E00E94300181E492E00E940D
:10181000230182E061E00E9430014091770382E081
:1018200061E050E023E030E00E944C0180917703BA
:101830008093C600EBCEEF92FF920F931F937B0134
:101840008C0120E030E040E05FE40E949D0E8823A0
:101850008CF0C801B70120E030E040E05FE40E9476
:10186000930D0E94CD0E9B01AC01205030404040B2
:10187000504806C0C801B7010E94CD0E9B01AC01C3
:10188000B901CA011F910F91FF90EF900895A0E058
:10189000B0E0EDE4FCE00C94AF11DC012B01FA01A7
:1018A0009C91923008F439C1EB018881823008F4B0
:1018B00033C1943069F4843009F02FC111969C91A2
:1018C00011978981981709F428C1A7E5B2E025C1CD
:1018D000843009F421C18230A9F4923009F01DC18D
:1018E0009A01AD0188E0EA010990AE01E90109928F
:1018F0009E018150C1F7E201898111969C91892353
:10190000818308C1923009F407C112962D903C9052
:101910001397EB018A819B811496AD90BD90CD9079
:10192000DC901797EC80FD800E811F819101281BB0
:10193000390BB90137FF04C066277727621B730B89
:10194000603271050CF061C0121613066CF5370198
:101950004801062E04C096948794779467940A945D
:10196000D2F721E030E040E050E004C0220F331F06
:10197000441F551F6A95D2F72150304040405040D7
:101980002E213F21402351232115310541055105C9
:1019900021F021E030E040E050E079018A01E628C2
:1019A000F728082919293CC0232BD1F1260E371E10
:1019B00035014601062E04C0969487947794679467
:1019C0000A94D2F721E030E040E050E004C0220F5A
:1019D000331F441F551F6A95D2F7215030404040B5
:1019E00050402A213B214C215D2121153105410523
:1019F000510521F021E030E040E050E059016A015A
:101A0000A628B728C828D9280BC0821593052CF022
:101A10001C01AA24BB24650103C0EE24FF24870116
:101A200011969C91D20111968C91981709F445C09A
:101A3000992339F0A80197012A193B094C095D093E
:101A400006C0A60195012E193F09400B510B57FD09
:101A500008C01182338222822483358346835783D0
:101A60001DC081E081833382228288279927DC018F
:101A7000821B930BA40BB50B84839583A683B7833A
:101A80000DC0220F331F441F551F24833583468307
:101A90005783828193810197938382832481358147
:101AA00046815781DA01C9010197A109B1098F5F08
:101AB0009F4FAF4FBF4328F30BC0918333822282E5
:101AC000EA0CFB1C0C1D1D1DE482F58206831783A6
:101AD00083E08083248135814681578157FF1AC076
:101AE000C901AA2797FDA095BA2F81709070A070A8
:101AF000B0705695479537952795822B932BA42B3D
:101B0000B52B84839583A683B783828193810196C5
:101B100093838283DF0101C0D201CD01CDB7DEB74F
:101B2000E2E10C94CB11A0E2B0E0E9E9FDE00C9415
:101B3000BB1169837A838B839C832D833E834F8380
:101B40005887E9E0EE2EF12CEC0EFD1ECE01019639
:101B5000B7010E94BE108E010F5E1F4FCE01059689
:101B6000B8010E94BE108A8991E089278A8BC7013B
:101B7000B801AE01475E5F4F0E94470C0E94E90F1B
:101B8000A096E6E00C94D711A0E2B0E0EAECFDE00C
:101B90000C94BB1169837A838B839C832D833E8352
:101BA0004F835887F9E0EF2EF12CEC0EFD1ECE018D
:101BB0000196B7010E94BE108E010F5E1F4FCE012D
:101BC0000596B8010E94BE10C701B801AE01475E7C
:101BD0005F4F0E94470C0E94E90FA096E6E00C942C
:101BE000D711A8E1B0E0E7EFFDE00C94B7116983ED
:101BF0007A838B839C832D833E834F835887B9E000
:101C0000EB2EF12CEC0EFD1ECE010196B7010E94C9
:101C1000BE108E010F5E1F4FCE010596B8010E94C7
:101C2000BE102985223008F47EC03989323010F484
:101C3000B8017CC08A859A8989278A87243011F067
:101C4000223031F4231709F06EC067E572E06EC0F0
:101C5000343039F41D861E861F86188A1C861B8622
:101C600004C0323021F484E08987B7015FC02B853E
:101C70003C858B899C89281B390B3C872B87ED84FD
:101C8000FE840F851889AD88BE88CF88D88CEA1469
:101C9000FB040C051D0540F4EE0CFF1C001F111F7A
:101CA000215030403C872B8720E030E040E050E07E
:101CB00080E090E0A0E0B0E460E070E0EA14FB04B3
:101CC0000C051D0540F0282B392B4A2B5B2BEA18FD
:101CD000FB080C091D09B695A79597958795EE0CFD
:101CE000FF1C001F111F6F5F7F4F6F31710531F7B0
:101CF000DA01C9018F779070A070B07080349105BF
:101D0000A105B10561F427FD0AC0E114F104010544
:101D1000110529F0205C3F4F4F4F5F4F20782D87F2
:101D20003E874F87588BBE01675F7F4FCB010E9474
:101D3000E90F6896EAE00C94D311A8E1B0E0E3EA79
:101D4000FEE00C94BB1169837A838B839C832D8383
:101D50003E834F83588789E0E82EF12CEC0EFD1E60
:101D6000CE010196B7010E94BE108E010F5E1F4F7B
:101D7000CE010596B8010E94BE108985823040F0E0
:101D80008989823028F0C701B8010E94361101C04C
:101D90008FEF6896E6E00C94D711ACE0B0E0E3ED8D
:101DA000FEE00C94BF1169837A838B839C83CE0100
:101DB0000196BE016B5F7F4F0E94BE108D81823005
:101DC00061F1823050F1843021F48E81882351F109
:101DD0002EC02F81388537FD20C06E812F3131050F
:101DE0001CF06623F9F023C08EE190E0821B930B78
:101DF00029853A854B855C8504C05695479537956E
:101E000027958A95D2F76623B1F050954095309585
:101E100021953F4F4F4F5F4F0EC020E030E040E034
:101E200050E009C02FEF3FEF4FEF5FE704C020E025
:101E300030E040E050E8B901CA012C96E2E00C9491
:101E4000DB11A8E0B0E0E7E2FFE00C94B7117B0102
:101E50008C01611571058105910519F482E0898372
:101E600060C083E089838EE1C82ED12CDC82CB82D6
:101E7000ED82FE820F831887C801B7010E949A0F76
:101E8000FC013197F7FF3BC0222733272E1B3F0B66
:101E900057016801022E04C0D694C794B794A79442
:101EA0000A94D2F740E050E060E070E081E090E01A
:101EB000A0E0B0E004C0880F991FAA1FBB1F2A959D
:101EC000D2F70197A109B1098E219F21A023B12347
:101ED0000097A105B10521F041E050E060E070E01D
:101EE0004A295B296C297D294D835E836F8378871E
:101EF0008EE190E08E1B9F0B9C838B8312C03097EA
:101F000081F00E2E04C0EE0CFF1C001F111F0A945E
:101F1000D2F7ED82FE820F831887CE1ADF0ADC82A9
:101F2000CB821A82CE0101960E94E90F2896EAE040
:101F30000C94D311EF92FF920F931F937B018C01AE
:101F400080E0E81680E0F80681E0080780E01807E6
:101F500088F48FEFE816F1040105110531F028F03F
:101F600088E090E0A0E0B0E017C080E090E0A0E062
:101F7000B0E012C080E0E81680E0F80680E00807D4
:101F800081E0180728F088E190E0A0E0B0E004C00C
:101F900080E190E0A0E0B0E020E230E040E050E0FE
:101FA000281B390B4A0B5B0B04C016950795F79459
:101FB000E7948A95D2F7F701E15AFD4F8081281BFB
:101FC000310941095109C9011F910F91FF90EF900B
:101FD0000895DF92EF92FF920F931F93FC01E4802C
:101FE000F58006811781D1808081823048F480E0BD
:101FF00090E0A0E1B0E0E82AF92A0A2B1B2BA5C04B
:10200000843009F49FC0823021F4EE24FF2487013C
:1020100005C0E114F1040105110519F4E0E0F0E058
:1020200096C0628173819FEF623879070CF05BC0C4
:1020300022E83FEF261B370B2A3131052CF020E038
:1020400030E040E050E02AC0B801A701022E04C0F1
:1020500076956795579547950A94D2F781E090E079
:10206000A0E0B0E004C0880F991FAA1FBB1F2A95EB
:10207000D2F70197A109B1098E219F21A023B12395
:102080000097A105B10521F081E090E0A0E0B0E06B
:102090009A01AB01282B392B4A2B5B2BDA01C901A2
:1020A0008F779070A070B07080349105A105B10554
:1020B00039F427FF09C0205C3F4F4F4F5F4F04C0EA
:1020C000215C3F4F4F4F5F4FE0E0F0E02030A0E059
:1020D0003A07A0E04A07A0E45A0710F0E1E0F0E078
:1020E00079018A0127C06038710564F5FB01E15868
:1020F000FF4FD801C7018F779070A070B070803407
:102100009105A105B10539F4E7FE0DC080E490E02A
:10211000A0E0B0E004C08FE390E0A0E0B0E0E80E03
:10212000F91E0A1F1B1F17FF05C016950795F79488
:10213000E794319687E016950795F794E7948A958A
:10214000D1F705C0EE24FF248701EFEFF0E06E2FFA
:10215000679566276795902F9F77D794DD24D7944E
:102160008E2F8695492F462B582F5D29B701CA011E
:102170001F910F91FF90EF90DF900895FC01DB011C
:10218000408151812281622F6F7770E0221F2227C8
:10219000221F9381892F880F822B282F30E0991FCF
:1021A0009927991F11969C93119721153105A9F52F
:1021B000411551056105710511F482E037C082E8CF
:1021C0009FEF13969C938E9312979A01AB0167E051
:1021D000220F331F441F551F6A95D1F783E08C935C
:1021E0000DC0220F331F441F551F12968D919C91D5
:1021F0001397019713969C938E931297203080E04B
:10220000380780E0480780E4580758F314962D9368
:102210003D934D935C93179708952F3F310579F4C3
:10222000411551056105710519F484E08C930895F9
:1022300064FF03C081E08C9312C01C9210C02F5722
:10224000304013963C932E93129783E08C9387E053
:10225000440F551F661F771F8A95D1F77064149637
:102260004D935D936D937C93179708951F93DC01B5
:10227000FB019C91923008F447C08081823008F4C1
:1022800043C0943051F411961C91843099F58181AA
:10229000682F70E0611B71093FC0843021F09230DB
:1022A00031F48230B9F18181882389F12DC01196F2
:1022B0001C9111978230F1F081811817D9F4129690
:1022C0002D913C911397828193818217930794F00B
:1022D00028173907BCF014968D919D910D90BC91F3
:1022E000A02D2481358146815781281739074A0757
:1022F0005B0718F4112341F00AC082179307A40763
:10230000B50740F4112319F061E070E005C06FEFEC
:102310007FEF02C060E070E0CB011F910895991B30
:1023200079E004C0991F961708F0961B881F7A95CC
:10233000C9F780950895AA1BBB1B51E107C0AA1FCE
:10234000BB1FA617B70710F0A61BB70B881F991F56
:102350005A95A9F780959095BC01CD0108952F92CB
:102360003F924F925F926F927F928F929F92AF9225
:10237000BF92CF92DF92EF92FF920F931F93CF9372
:10238000DF93CDB7DEB7CA1BDB0B0FB6F894DEBF09
:102390000FBECDBF19942A88398848885F846E841F
:1023A0007D848C849B84AA84B984C884DF80EE8079
:1023B000FD800C811B81AA81B981CE0FD11D0FB682
:1023C000F894DEBF0FBECDBFED010895F894FFCFA6
:1023D00020202020202020202020202020202020FD
:1023E000004C696E65506F696E743A0043686563AE
:1023F0006B706F696E743A0044697374616E6365E3
:102400003A2020202000446972656374696F6E3A37
:10241000004D6F6973747572652056616C75653A0D
:1024200000C8008C004B000000000000000000000D
:102430000102020303030304040404040404040566
:10244000050505050505050505050505050505063B
:10245000060606060606060606060606060606061C
:10246000060606060606060606060606060606070B
:1024700007070707070707070707070707070707EC
:1024800007070707070707070707070707070707DC
:1024900007070707070707070707070707070707CC
:1024A00007070707070707070707070707070708BB
:1024B000080808080808080808080808080808089C
:1024C000080808080808080808080808080808088C
:1024D000080808080808080808080808080808087C
:1024E000080808080808080808080808080808086C
:1024F000080808080808080808080808080808085C
:10250000080808080808080808080808080808084B
:10251000080808080808080808080808080808083B
:102520000808080808080808080808080808080033
:00000001FF
